{
  "transactions": [
    {
      "hash": "0xeadb9ce555fa70a8f9d20fb5f12812c71436eb62d8c5772779e144447956d80d",
      "transactionType": "CALL",
      "contractName": null,
      "contractAddress": "0xc6226f5094664c82ae181673f58e2c15d24896a1",
      "function": "createPlan(address,address,uint256,uint64,uint32)",
      "arguments": [
        "0x9450f4a21BD006E44b1ed2A0Dad13f91Db2550f1",
        "0xf9C8007dB4C063629DE485B6C9341a5266Af1744",
        "100000000000000000000",
        "60",
        "5"
      ],
      "transaction": {
        "from": "0xa4280dd3f9e1f6bf1778837ac12447615e1d0317",
        "to": "0xc6226f5094664c82ae181673f58e2c15d24896a1",
        "gas": "0x45bca",
        "value": "0x0",
        "input": "0x464c15000000000000000000000000009450f4a21bd006e44b1ed2a0dad13f91db2550f1000000000000000000000000f9c8007db4c063629de485b6c9341a5266af17440000000000000000000000000000000000000000000000056bc75e2d63100000000000000000000000000000000000000000000000000000000000000000003c0000000000000000000000000000000000000000000000000000000000000005",
        "nonce": "0x50",
        "chainId": "0x515"
      },
      "additionalContracts": [],
      "isFixedGasLimit": false
    },
    {
      "hash": "0xa541a7e2cb17489b1eda3a74fb326bc33b16395780f11a56a16a7022924f9cab",
      "transactionType": "CALL",
      "contractName": null,
      "contractAddress": "0x9450f4a21bd006e44b1ed2a0dad13f91db2550f1",
      "function": "approve(address,uint256)",
      "arguments": [
        "0xABc7d4B0a660039438013700F033597901A3BEe4",
        "500000000000000000000"
      ],
      "transaction": {
        "from": "0xa4280dd3f9e1f6bf1778837ac12447615e1d0317",
        "to": "0x9450f4a21bd006e44b1ed2a0dad13f91db2550f1",
        "gas": "0xfc24",
        "value": "0x0",
        "input": "0x095ea7b3000000000000000000000000abc7d4b0a660039438013700f033597901a3bee400000000000000000000000000000000000000000000001b1ae4d6e2ef500000",
        "nonce": "0x51",
        "chainId": "0x515"
      },
      "additionalContracts": [],
      "isFixedGasLimit": false
    },
    {
      "hash": "0xbdfae823cdbd717e8f3aa71d8dfe5e036591b46a8e8d0714294042708c34ea45",
      "transactionType": "CALL",
      "contractName": null,
      "contractAddress": "0xabc7d4b0a660039438013700f033597901a3bee4",
      "function": "deposit(uint256,uint256)",
      "arguments": [
        "1",
        "500000000000000000000"
      ],
      "transaction": {
        "from": "0xa4280dd3f9e1f6bf1778837ac12447615e1d0317",
        "to": "0xabc7d4b0a660039438013700f033597901a3bee4",
        "gas": "0x24f96",
        "value": "0x0",
        "input": "0xe2bbb158000000000000000000000000000000000000000000000000000000000000000100000000000000000000000000000000000000000000001b1ae4d6e2ef500000",
        "nonce": "0x52",
        "chainId": "0x515"
      },
      "additionalContracts": [],
      "isFixedGasLimit": false
    }
  ],
  "receipts": [
    {
      "status": "0x1",
      "cumulativeGasUsed": "0x5a210",
      "logs": [
        {
          "address": "0xc6226f5094664c82ae181673f58e2c15d24896a1",
          "topics": [
            "0x2afcd8b21586762bac03a0b05b0ecba03c4a69cf0d8a801bb7e54ff56bacc9e5",
            "0x0000000000000000000000000000000000000000000000000000000000000001",
            "0x000000000000000000000000a4280dd3f9e1f6bf1778837ac12447615e1d0317"
          ],
          "data": "0x0000000000000000000000009450f4a21bd006e44b1ed2a0dad13f91db2550f1000000000000000000000000f9c8007db4c063629de485b6c9341a5266af17440000000000000000000000000000000000000000000000056bc75e2d63100000000000000000000000000000000000000000000000000000000000000000003c0000000000000000000000000000000000000000000000000000000000000005",
          "blockHash": "0x0e09fae73be935aca531303e9d56f73fe72ddacceb292babda38591ef1e054ea",
          "blockNumber": "0x33cb61d",
          "blockTimestamp": "0x6a2a6369",
          "transactionHash": "0xeadb9ce555fa70a8f9d20fb5f12812c71436eb62d8c5772779e144447956d80d",
          "transactionIndex": "0x3",
          "logIndex": "0x1",
          "removed": false
        }
      ],
      "logsBloom": "0x00000000000000000000000000000000000000000000000000000000004000000000000000000002000000000000000000000000000000000000000000040000000000000000001000000000000000000000000000040000000000000100000000000000000000000000100001000000000000000000000000000000000000000000000000000000000000000000000000000000000000000000000000000000000000000000000000000000000000000000000040000000000000000000000000000000000000000000000000000000000000000000000000000000000040000000000000000000000000020000000000000000000000001000000000000000",
      "type": "0x2",
      "transactionHash": "0xeadb9ce555fa70a8f9d20fb5f12812c71436eb62d8c5772779e144447956d80d",
      "transactionIndex": "0x3",
      "blockHash": "0x0e09fae73be935aca531303e9d56f73fe72ddacceb292babda38591ef1e054ea",
      "blockNumber": "0x33cb61d",
      "gasUsed": "0x327d0",
      "effectiveGasPrice": "0x7a121",
      "blobGasUsed": "0xbb80",
      "from": "0xa4280dd3f9e1f6bf1778837ac12447615e1d0317",
      "to": "0xc6226f5094664c82ae181673f58e2c15d24896a1",
      "contractAddress": null,
      "daFootprintGasScalar": "0x190",
      "l1BaseFeeScalar": "0x7d0",
      "l1BlobBaseFee": "0xdc2e83d",
      "l1BlobBaseFeeScalar": "0xdbba0",
      "l1Fee": "0x9282ba0b6",
      "l1GasPrice": "0xdcba9e3c",
      "l1GasUsed": "0x788"
    },
    {
      "status": "0x1",
      "cumulativeGasUsed": "0x7c8cf",
      "logs": [
        {
          "address": "0x9450f4a21bd006e44b1ed2a0dad13f91db2550f1",
          "topics": [
            "0x8c5be1e5ebec7d5bd14f71427d1e84f3dd0314c0f7b2291e5b200ac8c7c3b925",
            "0x000000000000000000000000a4280dd3f9e1f6bf1778837ac12447615e1d0317",
            "0x000000000000000000000000abc7d4b0a660039438013700f033597901a3bee4"
          ],
          "data": "0x00000000000000000000000000000000000000000000001b1ae4d6e2ef500000",
          "blockHash": "0xa7bea98bb48da417e099ea22cf704c92d7e0c0604873eb1d7b60040e8da0d00d",
          "blockNumber": "0x33cb61d",
          "blockTimestamp": "0x6a2a6369",
          "transactionHash": "0xbdfae823cdbd717e8f3aa71d8dfe5e036591b46a8e8d0714294042708c34ea45",
          "transactionIndex": "0x5",
          "logIndex": "0x3",
          "removed": false
        }
      ],
      "logsBloom": "0x00000000000000000000000000000000000000000004000000000000004000000000000000000000000000000000000000000000000000000000000000200000000000000000001000000000000000000000000000000000000000000000000000000000000000000000000000000000000000000000000000000000000000000000000000000000000000008200000000800000000000000000000000000000020000000008000000000000000000000000000000000000000000000000000000000000000000000000020000000000000000000000000000000000000000000010000000000000000000000000000000000000000000001000000000000000",
      "type": "0x2",
      "transactionHash": "0xbdfae823cdbd717e8f3aa71d8dfe5e036591b46a8e8d0714294042708c34ea45",
      "transactionIndex": "0x5",
      "blockHash": "0xa7bea98bb48da417e099ea22cf704c92d7e0c0604873eb1d7b60040e8da0d00d",
      "blockNumber": "0x33cb61d",
      "gasUsed": "0xb68d",
      "effectiveGasPrice": "0x7a121",
      "blobGasUsed": "0x9c40",
      "from": "0xa4280dd3f9e1f6bf1778837ac12447615e1d0317",
      "to": "0x9450f4a21bd006e44b1ed2a0dad13f91db2550f1",
      "contractAddress": null,
      "daFootprintGasScalar": "0x190",
      "l1BaseFeeScalar": "0x7d0",
      "l1BlobBaseFee": "0xdc2e83d",
      "l1BlobBaseFeeScalar": "0xdbba0",
      "l1Fee": "0x798dad2fe",
      "l1GasPrice": "0xdcba9e3c",
      "l1GasUsed": "0x640"
    },
    {
      "status": "0x1",
      "cumulativeGasUsed": "0x95d50",
      "logs": [
        {
          "address": "0x9450f4a21bd006e44b1ed2a0dad13f91db2550f1",
          "topics": [
            "0xddf252ad1be2c89b69c2b068fc378daa952ba7f163c4a11628f55a4df523b3ef",
            "0x000000000000000000000000a4280dd3f9e1f6bf1778837ac12447615e1d0317",
            "0x000000000000000000000000abc7d4b0a660039438013700f033597901a3bee4"
          ],
          "data": "0x00000000000000000000000000000000000000000000001b1ae4d6e2ef500000",
          "blockHash": "0xa7bea98bb48da417e099ea22cf704c92d7e0c0604873eb1d7b60040e8da0d00d",
          "blockNumber": "0x33cb61d",
          "blockTimestamp": "0x6a2a6369",
          "transactionHash": "0xa541a7e2cb17489b1eda3a74fb326bc33b16395780f11a56a16a7022924f9cab",
          "transactionIndex": "0x6",
          "logIndex": "0x4",
          "removed": false
        },
        {
          "address": "0xabc7d4b0a660039438013700f033597901a3bee4",
          "topics": [
            "0x1599c0fcf897af5babc2bfcf707f5dc050f841b044d97c3251ecec35b9abf80b",
            "0x0000000000000000000000000000000000000000000000000000000000000001",
            "0x000000000000000000000000a4280dd3f9e1f6bf1778837ac12447615e1d0317"
          ],
          "data": "0x00000000000000000000000000000000000000000000001b1ae4d6e2ef500000",
          "blockHash": "0xa7bea98bb48da417e099ea22cf704c92d7e0c0604873eb1d7b60040e8da0d00d",
          "blockNumber": "0x33cb61d",
          "blockTimestamp": "0x6a2a6369",
          "transactionHash": "0xa541a7e2cb17489b1eda3a74fb326bc33b16395780f11a56a16a7022924f9cab",
          "transactionIndex": "0x6",
          "logIndex": "0x5",
          "removed": false
        }
      ],
      "logsBloom": "0x00000000000000000000000000000000000000000004000000000000004000000000000000000000000000000000000010000000000000000000000000040000000000000000001000000008000000000000000000040000000000400000000000000000000000000000000000000000000000000000000800000010000000000000000000000000000000009200000000800000000000000000000000000000000000000008000000000000000000000000000000000000000000000000000000000002000000000000220000000400000000000000000000000000000040000000000000000000000000000000000000000000000000001000000000000000",
      "type": "0x2",
      "transactionHash": "0xa541a7e2cb17489b1eda3a74fb326bc33b16395780f11a56a16a7022924f9cab",
      "transactionIndex": "0x6",
      "blockHash": "0xa7bea98bb48da417e099ea22cf704c92d7e0c0604873eb1d7b60040e8da0d00d",
      "blockNumber": "0x33cb61d",
      "gasUsed": "0x19481",
      "effectiveGasPrice": "0x7a121",
      "blobGasUsed": "0x9c40",
      "from": "0xa4280dd3f9e1f6bf1778837ac12447615e1d0317",
      "to": "0xabc7d4b0a660039438013700f033597901a3bee4",
      "contractAddress": null,
      "daFootprintGasScalar": "0x190",
      "l1BaseFeeScalar": "0x7d0",
      "l1BlobBaseFee": "0xdc2e83d",
      "l1BlobBaseFeeScalar": "0xdbba0",
      "l1Fee": "0x798dad2fe",
      "l1GasPrice": "0xdcba9e3c",
      "l1GasUsed": "0x640"
    }
  ],
  "libraries": [],
  "pending": [],
  "returns": {},
  "timestamp": 1781162858560,
  "chain": 1301,
  "commit": "78cf993"
}